:020000000029D5
:1002000083128501FF30831685008312860100303A
:10021000831686008312051C1229851C2329051DBF
:100220002B290B2928308D008C00030104308E010E
:100230008E0A8D020D088C0004308C0A8C0B182954
:100240000E0886000B2908308C000301023E8C0B3F
:10025000262986000B29013086003721860D051CD2
:100260001229851C2329051D2B292D290B29FF3037
:100270008C00FF308F088C0B3B298F0B3B2908002B
:00000001FF
