:020000000029D5
:1002000083128501FF30831685008312860100303A
:10021000831686008312051C1629851C2629051DB8
:100220003629851D4629051E56290B2914308600BE
:100230007A21860C051C1629851C2629051D3629C0
:10024000851D4629051E562918290B2914308600BC
:100250007A21860D051C1629851C2629051D36299F
:10026000851D4629051E562928290B29013086009F
:100270007A21860D051C1629851C2629051D36297F
:10028000851D4629051E562938290B292A30860046
:100290007A21860D051C1629851C2629051D36295F
:1002A000851D4629051E562948290B2981308600BF
:1002B0007A210301423086007A210301243086002E
:1002C0007A210301183086007A2103012430860048
:1002D0007A210301423086007A210301051C162988
:1002E000851C2629051D3629851D4629051E5629EA
:1002F00056290B29FF308C00FF308F008C0B7E2994
:060300008F0B7E290800AE
:00000001FF
