:020000000029D5
:100200008312860100308316860083128501003038
:10021000831685008312FF3086000508103A031903
:100220008E0094218E0A0E08860094218E0A0E08F4
:10023000860094218E0A0E08860094218E0A0E08EC
:10024000860094218E0A0E08860094218E0A0E08DC
:10025000860094218E0A0E08860094218E0A0E08CC
:10026000860094218E0A0E08860094218E0A0E08BC
:10027000860094218E0A0E08860094218E0A0E08AC
:10028000860094218E0A0E08860094218E0A0E089C
:10029000860094218E0A0E08860094218E0A0E088C
:1002A000860094218E0A0E08860094218E0A0E087C
:1002B000860094218E0A0E08860094218E0A0E086C
:1002C000860094218E0A0E08860094218E0A0E085C
:1002D000860094218E0A0E08860094218E0A0E084C
:1002E000860094218E0A0E08860094218E0A0E083C
:1002F000860094218E0A0E08860094218E0A0E082C
:1003000086009421FF308600942186019421FF30DD
:10031000860094218601FF308D00FF308C008C0B0D
:100320008F298D0B8D2908006400FF308C008D0013
:0A0330008C0B98298D0B982908000A
:00000001FF
