:020000000029D5
:1002000083128601003083168600831285011F3019
:1002100083168500831218308C000C308D00063058
:100220008E0003308F001130900005088C060319F2
:10023000262105088D0603192A2105088E060319B3
:100240002F2105088F060319372100291330860056
:100250004221080064302A3E860042210800133003
:10026000910012308607910B31294221080000309D
:100270008600C83092000430860A9202031D3C2991
:0E0280004221080010080506031D422908004F
:00000001FF
