:020000000029D5
:1002000083128601003083168600831285011F3019
:10021000831685008312050890001030100603191C
:100220002221083010060319282104301006031972
:100230002E21023010060319342101301006031953
:100240003A210B290A308E00B8308F004021080077
:1002500052308E0029308F00402108008F308E00F0
:10026000AE308F00402108001F308E00A3308F0079
:100270004021080029308E0066308F0040210800A0
:10028000FF3086004B218E0B4229030186004B2153
:100290008F0B47290800FF308C008D008C0B4E29F6
:0602A0008D0B4E29080041
:00000001FF
