:100000001F30650062000030660062008C018D01C7
:100010001E300502031911201D30050203191D2091
:100020000628003086002430332018303320423038
:1000300033208130332011280800003086008130C1
:100040003A2042303A2024303A2018303A201D28F5
:100050000800FF308C008D0000008C0B2C28000065
:100060008D0B2C280800860029201E30050203195C
:1000700008000628860029201D3005020319080003
:02008000062850
:00000001FF
