:020000000029D5
:100200008312860100308316860083120330860035
:100210004221422142211B30860042214221C0302E
:10022000860042214221422186014221C0308600BF
:10023000422186014221C0308600422186014221AE
:10024000C0308600422186014221C0308600422112
:1002500086014221C03086004221183086004221AA
:1002600042210629CC308E003E21080052308E00FB
:100270003E21080014308E003E21080042218E0BE2
:100280003E2908006400FF308C008D008C0B46294D
:060290008D0B4629080059
:00000001FF
