:020000000029D5
:1002000083128601003083168600831285011F3019
:10021000831685008312C130860005089200030111
:10022000120603190D291A2148218613911F262130
:1002300040210D298F0106180F1486188F140619F6
:100240000F1586198F15061A0F160800712111183F
:100250002C21111C36210800712103108F0CE03075
:1002600086050F088604900B2C29080071210310C5
:100270008F0DE03086050F088604900B36290800A4
:10028000061386167521861206177921861708002F
:100290004C21111C5E2108000F088E009101900175
:1002A00001308D000E080D0603190800900A8E0C0F
:1002B0000E081206031D522911140800911790010F
:1002C0000F088E0010308D000E080D06031908006F
:1002D000900A8E0D0E081206031D64299113111049
:1002E000080014308E007D21080066308E007D21CC
:1002F000080029308E007D21080081218E0B7D2988
:100300000800FF308C008D008C0B84298D0B842914
:020310000800E3
:00000001FF
