:020000000029D5
:100200008312860100308316860083122321322157
:10021000292136212F2132212C213A212F213A2147
:100220002C213A212F213A212C213A212F213A2128
:100230002C213A212F213A212C213A212F213A2118
:100240002621362106290330860008001830860052
:1002500008001B3086000800030186000800C0303B
:1002600086000800CC308E003E21080052308E00FF
:100270003E21080014308E003E21080042218E0BE2
:100280003E290800FF308C008D008C0B45298D0B1A
:0402900045290800F4
:00000001FF
