:100000001F30650062000030660062008C018D01C7
:100010001E300502031911201D3005020319252089
:1000200006280030860081303B20C3303B20E7307B
:100030003B20FF303B20E7303B20C3303B2081306A
:100040003B2000303B201128080000308600813022
:1000500042204230422024304220183042202528BD
:100060000800FF308C008D0000008C0B342800004D
:100070008D0B34280800860031201E30050203193C
:1000800008000628860031201D30050203190800EB
:02009000062840
:00000001FF
