:020000000029D5
:100200008312860100308316860083128501003038
:10021000831685008312C130860005089200030111
:10022000120603190D291A214B218613911F26212D
:1002300040210D298F0106180F1486188F140619F6
:100240000F1586198F15061A0F160800842111182C
:100250002C21111C36210800842103108F0CE03062
:1002600086050F088604900B2C29080084210310B2
:100270008F0DE03086050F088604900B36290800A4
:100280000613861684218421842186120617842170
:100290008421861708004F21111C612108000F08D6
:1002A0008E009101900101308D000E080D0603199A
:1002B0000800900A8E0C0E081206031D5529111411
:1002C0000800911790010F088E0010308D000E0865
:1002D0000D0603190800900A8E0D0E081206031D64
:1002E000672991131110080014308E008021080036
:1002F00066308E008021080029308E0080210800A1
:1003000084218E0B80290800FF308C008D008C0B1F
:0803100087298D0B87290800E5
:00000001FF
