:020000000029D5
:1002000083128601003083168600831285011F3019
:100210008316850083120508910018301106031912
:1002200022210C301106031928210630110603196A
:100230002E21033011060319342111301106031940
:100240003A210B2906308F0005309000402108002C
:1002500014308F00013090004021080002308F00E0
:100260000A3090004021080012308F000A309000C0
:100270004021080004308F00043090004021080025
:10028000FF3086004A218F0B422986014A21900BBC
:10029000462908000B308C00FF308D008E008E0B3D
:0C02A0004F298D0B4F298C0B4C290800B6
:00000001FF
