:020000000029D5
:100200008312860100308316860083128501003038
:10021000831685008312C130860005089200030111
:10022000120603190D291A2140218613911F1E2140
:1002300038210D298F011F308F0508006921111801
:100240002421111C2E210800692103108F0CE0309D
:1002500086050F088604900B2429080069210310E5
:100260008F0DE03086050F088604900B2E290800BC
:10027000061386166D21861206177121861708004F
:100280004421111C562108000F088E009101900195
:1002900001308D000E080D0603190800900A8E0C1F
:1002A0000E081206031D4A29111408009117900127
:1002B0000F088E0010308D000E080D06031908007F
:1002C000900A8E0D0E081206031D5C299113111061
:1002D000080014308E007521080066308E007521EC
:1002E000080029308E007521080079218E0B7529B0
:1002F0000800FF308C008D008C0B7C298D0B7C2935
:020300000800F3
:00000001FF
