:020000000029D5
:100200008312860100308316860083120330860035
:100210002C211B3086003021C03086002C21860125
:100220003421C0308600342186013421C03086005C
:10023000342186013421C0308600342186013421E6
:10024000C0308600342186013421C030860034213C
:100250001830860030210629CC308E003821080065
:1002600052308E003821080014308E0038210800EA
:100270003C218E0B38290800FF308C008D008C0B40
:080280003F298D0B3F29080006
:00000001FF
