:020000000029D5
:1002000083128601003083168600831285011F3019
:1002100083168500831210308C0008308D00043066
:100220008E0002308F000130900005088C06031903
:10023000262105088D0603192D2105088E060319B0
:10024000352105088F06031943210029A7308600B0
:1002500010080506031D2629080019304E3E8600A9
:1002600010080506031D2D290800053091000030F7
:100270000A3E910B382991001108860010080506E6
:10028000031D3C29080000308600FF309200033037
:10029000860A9202031D482910080506031D4C29F1
:0202A000080054
:00000001FF
