:020000000029D5
:100200008312860100308316860083128501003038
:1002100083168500831218308C000C308D00063058
:100220008E0003308F001130900005088C060319F2
:10023000262105088D0603192D2105088E060319B0
:10024000352105088F060319402100291330860047
:1002500010080506031D2629080064302A3E860082
:1002600010080506031D2D290800133091001230D7
:100270008607910B372910080506031D3B29080046
:1002800000308600C83092000430860A9202031DB6
:0C029000452910080506031D4929080037
:00000001FF
