:100000001F3065006200003066006200003086002C
:1000100001308C0002308D000430AD0000308E00C5
:1000200000308F000030AF00013005020319272097
:1000300002300502031933200430050203193F2062
:10004000FF3086006B20003086006B200E28AA301F
:100050008E0086008E090C080502031D0E286B20F9
:100060000E082928080086006B208F0C0D08050259
:10007000031D0E280F0803198F17332808001830A6
:1000800086006B202D080502031D0E2824308600F3
:100090006B202D080502031D0E28423086006B20C0
:1000A0002D080502031D0E28813086006B202D08C7
:1000B0000502031D0E28423086006B202D08050224
:1000C000031D0E28243086006B202D080502031D19
:1000D0000E283F280800FF309F009E0000009F0B65
:0800E0006E289E0B6E2808003B
:00000001FF
