:020000000029D5
:1002000083128601003083168600831283128501D3
:100210001F3083168500831285181B21851C202121
:1002200005192521051D2821051A392905182B290D
:10023000851932290C29861406158616061708001A
:100240008610061186120613080086150616080089
:1002500086110612080085194D290614442106103E
:100260004421182905184D29861744218613442155
:100270001A2905184D2985194D2906148617442178
:100280000610861344211629FF308D00FF308C00A4
:100290008C0B48298D0B46290800FF30860044212D
:0602A000860144210C2937
:00000001FF
