:020000000029D5
:1002000083128601003083168600831283128501D3
:100210001F3083168500831205182B2185181B219A
:10022000851C202105192521051D2821851932212C
:10023000051A39290C298614061586160617080092
:100240008610061186120613080086150616080089
:1002500086110612080085194D290614442106103E
:100260004421080005184D2986174421861344218E
:10027000080005184D2985194D29061486174421B3
:100280000610861344211A29FF308D00FF308C00A0
:100290008C0B48298D0B46290800FF30860044212D
:0602A000860144210C2937
:00000001FF
