:020000000029D5
:1002000083128601003083168600831283128501D3
:100210001F3083168500831285181B21851C202121
:1002200005192521051D2821051A352905182B2119
:10023000851930210C298614061586160617080024
:100240008610061186120613080086150616080089
:1002500086110612080006144021061040210800ED
:100260008617402186134021080005184929851961
:1002700049290614861740210610861340211629A5
:10028000FF308D00FF308C008C0B44298D0B4229F0
:0E0290000800FF3086004021860140210C2925
:00000001FF
